:020000020000FC
:10F000003F065B4F666D7D077F6FFA00314000045D
:10F010003C4002023D400400B0126AF13C40000254
:10F020003D400AF03E400200B012CCF1B01298F020
:10F03000B012C8F10A120B120812484C4C487E401C
:10F040000A00B01226F14A4C4C487E400A00B01229
:10F0500026F14B4E5E4205024E8303245E830E244E
:10F06000193CF2F0FC0021004B4B5C4B00F0B0125D
:10F070007CF1D2D32100D24305020C3CF2F0FC001B
:10F0800021004A4A5C4A00F0B0127CF1E2D3210030
:10F09000C24305023040AAF1B240805A2001D24258
:10F0A000FF105700D242FE105600B01202F1F2F0EB
:10F0B000FC002100F2D003002200C2430302B01280
:10F0C00042F132D2D2930302FD23C2430302B012B3
:10F0D000D4F0F83F5C420402B01234F0D293020242
:10F0E0000E20C2430202F29063000402032CD253AA
:10F0F0000402023CC2430402B240FA000002304063
:10F10000B2F1D2436900F2D00A001B00F2D06900CC
:10F110006800F2D080006900E2D36A00C2436B004D
:10F12000D2C3690030417CF37EF30F4E0D4C0E4389
:10F130001C430D5D0E6E0E9F01280E8F0C6CF92B7B
:10F140003041B24010006201B240E7037201B240A8
:10F150009002600130410A1221830A4C814A00006A
:10F160000D415C43B012D4F1F93F0F4C0F5D033CED
:10F17000CC4300001C530C9FFB233041D2B36D00E5
:10F18000FD2FF2B20300FD2BC24C6F0030410F4C3B
:10F19000043CFF4D00001F533E530E93FA233041B1
:10F1A0003541344137413641394138413B413A419B
:10F1B0003041B2530002829300020220D243020285
:10F1C0003041D243030200133040D0F130408EF181
:06F1D000304056F1304111
:02FFF200C2F15A
:02FFFE000CF005
:040000030000F00CFD
:00000001FF
